{
  "_format": "hh3-artifact-1",
  "contractName": "TestToken",
  "sourceName": "contracts/TestToken.sol",
  "abi": [
    {
      "inputs": [
        {
          "internalType": "string",
          "name": "name",
          "type": "string"
        },
        {
          "internalType": "string",
          "name": "symbol",
          "type": "string"
        },
        {
          "internalType": "uint256",
          "name": "initialSupply",
          "type": "uint256"
        }
      ],
      "stateMutability": "nonpayable",
      "type": "constructor"
    },
    {
      "inputs": [
        {
          "internalType": "address",
          "name": "spender",
          "type": "address"
        },
        {
          "internalType": "uint256",
          "name": "allowance",
          "type": "uint256"
        },
        {
          "internalType": "uint256",
          "name": "needed",
          "type": "uint256"
        }
      ],
      "name": "ERC20InsufficientAllowance",
      "type": "error"
    },
    {
      "inputs": [
        {
          "internalType": "address",
          "name": "sender",
          "type": "address"
        },
        {
          "internalType": "uint256",
          "name": "balance",
          "type": "uint256"
        },
        {
          "internalType": "uint256",
          "name": "needed",
          "type": "uint256"
        }
      ],
      "name": "ERC20InsufficientBalance",
      "type": "error"
    },
    {
      "inputs": [
        {
          "internalType": "address",
          "name": "approver",
          "type": "address"
        }
      ],
      "name": "ERC20InvalidApprover",
      "type": "error"
    },
    {
      "inputs": [
        {
          "internalType": "address",
          "name": "receiver",
          "type": "address"
        }
      ],
      "name": "ERC20InvalidReceiver",
      "type": "error"
    },
    {
      "inputs": [
        {
          "internalType": "address",
          "name": "sender",
          "type": "address"
        }
      ],
      "name": "ERC20InvalidSender",
      "type": "error"
    },
    {
      "inputs": [
        {
          "internalType": "address",
          "name": "spender",
          "type": "address"
        }
      ],
      "name": "ERC20InvalidSpender",
      "type": "error"
    },
    {
      "inputs": [
        {
          "internalType": "address",
          "name": "owner",
          "type": "address"
        }
      ],
      "name": "OwnableInvalidOwner",
      "type": "error"
    },
    {
      "inputs": [
        {
          "internalType": "address",
          "name": "account",
          "type": "address"
        }
      ],
      "name": "OwnableUnauthorizedAccount",
      "type": "error"
    },
    {
      "anonymous": false,
      "inputs": [
        {
          "indexed": true,
          "internalType": "address",
          "name": "owner",
          "type": "address"
        },
        {
          "indexed": true,
          "internalType": "address",
          "name": "spender",
          "type": "address"
        },
        {
          "indexed": false,
          "internalType": "uint256",
          "name": "value",
          "type": "uint256"
        }
      ],
      "name": "Approval",
      "type": "event"
    },
    {
      "anonymous": false,
      "inputs": [
        {
          "indexed": true,
          "internalType": "address",
          "name": "previousOwner",
          "type": "address"
        },
        {
          "indexed": true,
          "internalType": "address",
          "name": "newOwner",
          "type": "address"
        }
      ],
      "name": "OwnershipTransferred",
      "type": "event"
    },
    {
      "anonymous": false,
      "inputs": [
        {
          "indexed": true,
          "internalType": "address",
          "name": "from",
          "type": "address"
        },
        {
          "indexed": true,
          "internalType": "address",
          "name": "to",
          "type": "address"
        },
        {
          "indexed": false,
          "internalType": "uint256",
          "name": "value",
          "type": "uint256"
        }
      ],
      "name": "Transfer",
      "type": "event"
    },
    {
      "inputs": [
        {
          "internalType": "address",
          "name": "owner",
          "type": "address"
        },
        {
          "internalType": "address",
          "name": "spender",
          "type": "address"
        }
      ],
      "name": "allowance",
      "outputs": [
        {
          "internalType": "uint256",
          "name": "",
          "type": "uint256"
        }
      ],
      "stateMutability": "view",
      "type": "function"
    },
    {
      "inputs": [
        {
          "internalType": "address",
          "name": "spender",
          "type": "address"
        },
        {
          "internalType": "uint256",
          "name": "value",
          "type": "uint256"
        }
      ],
      "name": "approve",
      "outputs": [
        {
          "internalType": "bool",
          "name": "",
          "type": "bool"
        }
      ],
      "stateMutability": "nonpayable",
      "type": "function"
    },
    {
      "inputs": [
        {
          "internalType": "address",
          "name": "account",
          "type": "address"
        }
      ],
      "name": "balanceOf",
      "outputs": [
        {
          "internalType": "uint256",
          "name": "",
          "type": "uint256"
        }
      ],
      "stateMutability": "view",
      "type": "function"
    },
    {
      "inputs": [
        {
          "internalType": "address",
          "name": "from",
          "type": "address"
        },
        {
          "internalType": "uint256",
          "name": "amount",
          "type": "uint256"
        }
      ],
      "name": "burn",
      "outputs": [],
      "stateMutability": "nonpayable",
      "type": "function"
    },
    {
      "inputs": [],
      "name": "decimals",
      "outputs": [
        {
          "internalType": "uint8",
          "name": "",
          "type": "uint8"
        }
      ],
      "stateMutability": "view",
      "type": "function"
    },
    {
      "inputs": [
        {
          "internalType": "address",
          "name": "to",
          "type": "address"
        },
        {
          "internalType": "uint256",
          "name": "amount",
          "type": "uint256"
        }
      ],
      "name": "mint",
      "outputs": [],
      "stateMutability": "nonpayable",
      "type": "function"
    },
    {
      "inputs": [],
      "name": "name",
      "outputs": [
        {
          "internalType": "string",
          "name": "",
          "type": "string"
        }
      ],
      "stateMutability": "view",
      "type": "function"
    },
    {
      "inputs": [],
      "name": "owner",
      "outputs": [
        {
          "internalType": "address",
          "name": "",
          "type": "address"
        }
      ],
      "stateMutability": "view",
      "type": "function"
    },
    {
      "inputs": [],
      "name": "renounceOwnership",
      "outputs": [],
      "stateMutability": "nonpayable",
      "type": "function"
    },
    {
      "inputs": [],
      "name": "symbol",
      "outputs": [
        {
          "internalType": "string",
          "name": "",
          "type": "string"
        }
      ],
      "stateMutability": "view",
      "type": "function"
    },
    {
      "inputs": [],
      "name": "totalSupply",
      "outputs": [
        {
          "internalType": "uint256",
          "name": "",
          "type": "uint256"
        }
      ],
      "stateMutability": "view",
      "type": "function"
    },
    {
      "inputs": [
        {
          "internalType": "address",
          "name": "to",
          "type": "address"
        },
        {
          "internalType": "uint256",
          "name": "value",
          "type": "uint256"
        }
      ],
      "name": "transfer",
      "outputs": [
        {
          "internalType": "bool",
          "name": "",
          "type": "bool"
        }
      ],
      "stateMutability": "nonpayable",
      "type": "function"
    },
    {
      "inputs": [
        {
          "internalType": "address",
          "name": "from",
          "type": "address"
        },
        {
          "internalType": "address",
          "name": "to",
          "type": "address"
        },
        {
          "internalType": "uint256",
          "name": "value",
          "type": "uint256"
        }
      ],
      "name": "transferFrom",
      "outputs": [
        {
          "internalType": "bool",
          "name": "",
          "type": "bool"
        }
      ],
      "stateMutability": "nonpayable",
      "type": "function"
    },
    {
      "inputs": [
        {
          "internalType": "address",
          "name": "newOwner",
          "type": "address"
        }
      ],
      "name": "transferOwnership",
      "outputs": [],
      "stateMutability": "nonpayable",
      "type": "function"
    }
  ],
  "bytecode": "0x608060405234801561000f575f5ffd5b50604051610e53380380610e5383398101604081905261002e916102e3565b338383600361003d83826103d4565b50600461004a82826103d4565b5050506001600160a01b03811661007b57604051631e4fbdf760e01b81525f60048201526024015b60405180910390fd5b61008481610097565b5061008f33826100e8565b5050506104b3565b600580546001600160a01b038381166001600160a01b0319831681179093556040519116919082907f8be0079c531659141344cd1fd0a4f28419497f9722a3daafe3b4186f6b6457e0905f90a35050565b6001600160a01b0382166101115760405163ec442f0560e01b81525f6004820152602401610072565b61011c5f8383610120565b5050565b6001600160a01b03831661014a578060025f82825461013f919061048e565b909155506101ba9050565b6001600160a01b0383165f908152602081905260409020548181101561019c5760405163391434e360e21b81526001600160a01b03851660048201526024810182905260448101839052606401610072565b6001600160a01b0384165f9081526020819052604090209082900390555b6001600160a01b0382166101d6576002805482900390556101f4565b6001600160a01b0382165f9081526020819052604090208054820190555b816001600160a01b0316836001600160a01b03167fddf252ad1be2c89b69c2b068fc378daa952ba7f163c4a11628f55a4df523b3ef8360405161023991815260200190565b60405180910390a3505050565b634e487b7160e01b5f52604160045260245ffd5b5f82601f830112610269575f5ffd5b81516001600160401b0381111561028257610282610246565b604051601f8201601f19908116603f011681016001600160401b03811182821017156102b0576102b0610246565b6040528181528382016020018510156102c7575f5ffd5b8160208501602083015e5f918101602001919091529392505050565b5f5f5f606084860312156102f5575f5ffd5b83516001600160401b0381111561030a575f5ffd5b6103168682870161025a565b602086015190945090506001600160401b03811115610333575f5ffd5b61033f8682870161025a565b925050604084015190509250925092565b600181811c9082168061036457607f821691505b60208210810361038257634e487b7160e01b5f52602260045260245ffd5b50919050565b601f8211156103cf57805f5260205f20601f840160051c810160208510156103ad5750805b601f840160051c820191505b818110156103cc575f81556001016103b9565b50505b505050565b81516001600160401b038111156103ed576103ed610246565b610401816103fb8454610350565b84610388565b6020601f821160018114610433575f831561041c5750848201515b5f19600385901b1c1916600184901b1784556103cc565b5f84815260208120601f198516915b828110156104625787850151825560209485019460019092019101610442565b508482101561047f57868401515f19600387901b60f8161c191681555b50505050600190811b01905550565b808201808211156104ad57634e487b7160e01b5f52601160045260245ffd5b92915050565b610993806104c05f395ff3fe608060405234801561000f575f5ffd5b50600436106100e5575f3560e01c8063715018a6116100885780639dc29fac116100635780639dc29fac146101c6578063a9059cbb146101d9578063dd62ed3e146101ec578063f2fde38b14610224575f5ffd5b8063715018a61461019b5780638da5cb5b146101a357806395d89b41146101be575f5ffd5b806323b872dd116100c357806323b872dd1461013c578063313ce5671461014f57806340c10f191461015e57806370a0823114610173575f5ffd5b806306fdde03146100e9578063095ea7b31461010757806318160ddd1461012a575b5f5ffd5b6100f1610237565b6040516100fe9190610803565b60405180910390f35b61011a610115366004610853565b6102c7565b60405190151581526020016100fe565b6002545b6040519081526020016100fe565b61011a61014a36600461087b565b6102e0565b604051601281526020016100fe565b61017161016c366004610853565b610303565b005b61012e6101813660046108b5565b6001600160a01b03165f9081526020819052604090205490565b610171610311565b6005546040516001600160a01b0390911681526020016100fe565b6100f1610324565b6101716101d4366004610853565b610333565b61011a6101e7366004610853565b61033d565b61012e6101fa3660046108d5565b6001600160a01b039182165f90815260016020908152604080832093909416825291909152205490565b6101716102323660046108b5565b61034a565b60606003805461024690610906565b80601f016020809104026020016040519081016040528092919081815260200182805461027290610906565b80156102bd5780601f10610294576101008083540402835291602001916102bd565b820191905f5260205f20905b8154815290600101906020018083116102a057829003601f168201915b5050505050905090565b5f336102d48185856103a5565b60019150505b92915050565b5f336102ed8582856103b7565b6102f885858561044c565b506001949350505050565b61030d82826104a9565b5050565b6103196104dd565b6103225f610523565b565b60606004805461024690610906565b61030d828261058c565b5f336102d481858561044c565b6103526104dd565b6001600160a01b038116610399576040517f1e4fbdf70000000000000000000000000000000000000000000000000000000081525f60048201526024015b60405180910390fd5b6103a281610523565b50565b6103b283838360016105c0565b505050565b6001600160a01b038381165f908152600160209081526040808320938616835292905220545f198110156104465781811015610438576040517ffb8f41b20000000000000000000000000000000000000000000000000000000081526001600160a01b03841660048201526024810182905260448101839052606401610390565b61044684848484035f6105c0565b50505050565b6001600160a01b03831661047557604051634b637e8f60e11b81525f6004820152602401610390565b6001600160a01b03821661049e5760405163ec442f0560e01b81525f6004820152602401610390565b6103b28383836106c4565b6001600160a01b0382166104d25760405163ec442f0560e01b81525f6004820152602401610390565b61030d5f83836106c4565b6005546001600160a01b03163314610322576040517f118cdaa7000000000000000000000000000000000000000000000000000000008152336004820152602401610390565b600580546001600160a01b038381167fffffffffffffffffffffffff0000000000000000000000000000000000000000831681179093556040519116919082907f8be0079c531659141344cd1fd0a4f28419497f9722a3daafe3b4186f6b6457e0905f90a35050565b6001600160a01b0382166105b557604051634b637e8f60e11b81525f6004820152602401610390565b61030d825f836106c4565b6001600160a01b038416610602576040517fe602df050000000000000000000000000000000000000000000000000000000081525f6004820152602401610390565b6001600160a01b038316610644576040517f94280d620000000000000000000000000000000000000000000000000000000081525f6004820152602401610390565b6001600160a01b038085165f908152600160209081526040808320938716835292905220829055801561044657826001600160a01b0316846001600160a01b03167f8c5be1e5ebec7d5bd14f71427d1e84f3dd0314c0f7b2291e5b200ac8c7c3b925846040516106b691815260200190565b60405180910390a350505050565b6001600160a01b0383166106ee578060025f8282546106e3919061093e565b909155506107779050565b6001600160a01b0383165f9081526020819052604090205481811015610759576040517fe450d38c0000000000000000000000000000000000000000000000000000000081526001600160a01b03851660048201526024810182905260448101839052606401610390565b6001600160a01b0384165f9081526020819052604090209082900390555b6001600160a01b038216610793576002805482900390556107b1565b6001600160a01b0382165f9081526020819052604090208054820190555b816001600160a01b0316836001600160a01b03167fddf252ad1be2c89b69c2b068fc378daa952ba7f163c4a11628f55a4df523b3ef836040516107f691815260200190565b60405180910390a3505050565b602081525f82518060208401528060208501604085015e5f604082850101526040601f19601f83011684010191505092915050565b80356001600160a01b038116811461084e575f5ffd5b919050565b5f5f60408385031215610864575f5ffd5b61086d83610838565b946020939093013593505050565b5f5f5f6060848603121561088d575f5ffd5b61089684610838565b92506108a460208501610838565b929592945050506040919091013590565b5f602082840312156108c5575f5ffd5b6108ce82610838565b9392505050565b5f5f604083850312156108e6575f5ffd5b6108ef83610838565b91506108fd60208401610838565b90509250929050565b600181811c9082168061091a57607f821691505b60208210810361093857634e487b7160e01b5f52602260045260245ffd5b50919050565b808201808211156102da57634e487b7160e01b5f52601160045260245ffdfea264697066735822122048a14e376f39ff660dea46b330042d86016356c2b016db9b38c8024b4c9b943d64736f6c634300081c0033",
  "linkReferences": {},
  "deployedLinkReferences": {},
  "immutableReferences": {},
  "inputSourceName": "project/contracts/TestToken.sol",
  "buildInfoId": "solc-0_8_28-078203bfef9a824614449bea6a9b8d40cc5a7dea"
}